S0120000546573745F44485432312E73726563D0
S11300000C942A000C9447000C9447000C9447006D
S11300100C9447000C9447000C9447000C94470040
S11300200C9447000C9447000C9447000C94470030
S11300300C9447000C9447000C9447000C94470020
S11300400C9447000C9447000C9447000C94470010
S11300500C94470011241FBECFE5D4E0DEBFCDBF12
S113006010E0A0E6B0E0EAE6F9E002C005900D92E7
S1130070A238B107D9F720E0A2E8B0E001C01D9290
S1130080A638B207E1F70E9477000C94B3040C94ED
S113009000001F93CF93DF9300D01F92CDB7DEB73C
S11300A0162F9F938F9380E690E09F938F93CE01BA
S11300B001969F938F930E94C901812F0E9483010F
S11300C089810E94A20181E0810F0E9483018A81BB
S11300D00E94A2010F900F900F900F900F900F901D
S11300E00F900F900F90DF91CF911F9108958FEF94
S11300F084BB15BA81BB12BA0E948D010E947F0194
S113010065E670E081E00E94AD012FEF89E698E199
S1130110215080409040E1F700C0000062E870E0A8
S113012084E890E00E945E018F3FD1F066E0809108
S11301308400909185000E944900809184009091F0
S113014085004497069730F066E181E090E00E94D4
S113015049000BC066E180E090E00E94490005C0C0
S11301606BE770E081E00E94AD012FEF89E698E132
S1130170215080409040E1F700C00000CFCFCF92E3
S1130180DF92EF92FF920F931F93CF93DF9300D0F0
S113019000D01F92CDB7DEB76C01DE01119695E059
S11301A0FD0111929A95E9F7D29ADA9AFFEF20E7C6
S11301B082E0F15020408040E1F700C00000DA986E
S11301C0AFE9BCE81197F1F700C00000DA9AD298C1
S11301D0BAE6BA95F1F700C0CA9959C0E5EDEA95B7
S11301E0F1F70000CA9B55C0F5EDFA95F1F7000050
S11301F08E010F5F1F4F7E0126E0E20EF11CE1E04D
S1130200F0E026C02150310919F445C029EC30E052
S1130210CA9BF8CF80E58A95F1F7CA9B08C09F0175
S1130220042E02C0220F331F0A94E2F7922B29EC0A
S113023030E003C02150310981F1CA99FBCF41500C
S1130240510920F7D8019D938D01EA16FB0621F090
S113025047E050E090E0DACFD29ADA9ABFEFE0E7D5
S1130260F2E0B150E040F040E1F700C00000298125
S11302703B818A81820F830F9C81890F9D81891321
S11302800EC0D6013C93FB01208380E009C08FEFB0
S113029007C08FEF05C08FEF03C08FEF01C08FEF52
S11302A00F900F900F900F900F90DF91CF911F91AF
S11302B00F91FF90EF90DF90CF9008950E94BF00C0
S11302C00895181619065CF00895000021503109AC
S11302D0E1F74F5F5F4F8417950719F4089540E0E5
S11302E050E027E033E0F1CF9698959885BB979A34
S11302F00000979882E090E00E946101089581E0F7
S11303000E9474010895813120F481580E9474017F
S1130310089581550E947401089584E690E00E9436
S1130320610188E30E94740186E00E9474018FE0F9
S11303300E94740181E00E9474018AE090E00E94AE
S113034061010895969A959885BB979A00009798AD
S113035081E090E00E94610108950F931F93CF9371
S1130360DF93182FEB010E947F018881882361F0BD
S113037001E0010F812F0E94830189910E94A20153
S1130380102F88818111F4CFDF91CF911F910F91AC
S11303900895AEE0B0E0EFECF1E00C948A040D892E
S11303A01E8986E08C831A8309838FEF9FE79E83DF
S11303B08D83AE01475E5F4F6F89788DCE010196C4
S11303C00E94EB01EF81F885E00FF11F10822E9659
S11303D0E4E00C94A604ABE0B0E0E1EFF1E00C94AF
S11303E07C046C017B018A01FC01178216828381E3
S11303F081FFCCC1CE0101963C01F6019381F70146
S113040093FD859193FF81917F01882309F4BAC1FB
S1130410853239F493FD859193FF81917F01853273
S113042029F4B60190E00E94E203E7CF912C212C3D
S1130430312CFFE1F315D8F08B3279F038F48032A7
S113044079F08332A1F4232D20611DC08D3261F037
S1130450803369F4232D216016C0832D8260382EE9
S1130460E32DE4603E2E2AC0F32DF8601DC037FC56
S11304702DC020ED280F2A3040F08E32B9F436FC1E
S113048081C1232D2064322E19C036FE06C08AE0B5
S1130490989E200D1124922E11C0EAE02E9E200D6C
S11304A01124222EF32DF0623F2E08C08C3621F445
S11304B0832D8068382E02C0883641F4F70193FDFD
S11304C0859193FF81917F018111B3CF982F9F7DF7
S11304D09554933028F40C5F1F4F9FE399830DC00C
S11304E0833631F0833771F0833509F059C021C068
S11304F0F801808189830E5F1F4F88248394912C97
S1130500530113C02801F2E04F0E511CF801A080E2
S1130510B18036FE03C0692D70E002C06FEF7FEF3B
S1130520C5010E94D7034C018201F32DFF773F2EB2
S113053016C0280122E0420E511CF801A080B180AF
S113054036FE03C0692D70E002C06FEF7FEFC50176
S11305500E94CC034C01F32DF0683F2E820133FC42
S11305601BC0822D90E088169906B0F4B60180E293
S113057090E00E94E2032A94F4CFF50137FC8591C0
S113058037FE81915F01B60190E00E94E2032110E1
S11305902A9421E0821A91088114910471F7E8C029
S11305A0843611F0893641F5F80137FE07C06081C1
S11305B07181828193810C5F1F4F08C060817181BA
S11305C0072E000C880B990B0E5F1F4FF32DFF763F
S11305D03F2E97FF09C090958095709561957F4F48
S11305E08F4F9F4FF0683F2E2AE030E0A3010E9416
S11305F01E04882E861845C0853731F4232D2F7E9E
S1130600B22E2AE030E025C0932D997FB92E8F3683
S1130610C1F018F4883579F0B5C0803719F08837FF
S113062021F0B0C0E92FE061BE2EB4FE0DC0FB2D59
S1130630F460BF2E09C034FE0AC0292F2660B22EF2
S113064006C028E030E005C020E130E002C020E12F
S113065032E0F801B7FE07C0608171818281938125
S11306600C5F1F4F06C06081718180E090E00E5FD7
S11306701F4FA3010E941E04882E8618FB2DFF77AE
S11306803F2E36FE0DC0232D2E7FA22E891458F442
S113069034FE0BC032FC09C0832D8E7EA82E05C00B
S11306A0B82CA32C03C0B82C01C0B92CA4FE0FC0D5
S11306B0FE01E80DF11D8081803321F49A2D997E8D
S11306C0A92E09C0A2FE06C0B394B39404C08A2D17
S11306D0867809F0B394A3FC11C0A0FE06C0B2143E
S11306E088F4280C922C9B180EC0B21460F4B60146
S11306F080E290E00E94E203B394F7CFB21418F4BE
S11307002B1802C0982C212CA4FE10C0B60180E343
S113071090E00E94E203A2FE17C0A1FC03C088E798
S113072090E002C088E590E0B6010CC08A2D86787E
S113073059F0A1FE02C08BE201C080E2A7FC8DE269
S1130740B60190E00E94E203891438F4B60180E314
S113075090E00E94E2039A94F7CF8A94F301E80DA3
S1130760F11D8081B60190E00E94E2038110F5CF73
S1130770222009F442CEB60180E290E00E94E20316
S11307802A94F6CFF6018681978102C08FEF9FEFFE
S11307902B96E2E10C949804FC01059061507040A2
S11307A00110D8F7809590958E0F9F1F0895FC0136
S11307B06150704001900110D8F7809590958E0F8C
S11307C09F1F08950F931F93CF93DF93FB01238102
S11307D021FD03C08FEF9FEF2CC022FF16C046817E
S11307E05781248135814217530744F4A081B18194
S11307F09D012F5F3F4F318320838C932681378166
S11308002F5F3F4F3783268314C08B01EC01FB011C
S11308100084F185E02D0995892BE1F6D80116961F
S11308208D919C911797019617969C938E9316978A
S1130830CE01DF91CF911F910F910895FA01AA275C
S1130840283051F1203181F1E8946F936E7F6E5F0F
S11308507F4F8F4F9F4FAF4FB1E03ED0B4E03CD0BD
S1130860670F781F891F9A1FA11D680F791F8A1FA0
S1130870911DA11D6A0F711D811D911DA11D20D007
S113088009F468943F912AE0269F11243019305DC1
S11308903193DEF6CF010895462F4770405D4193B2
S11308A0B3E00FD0C9F7F6CF462F4F70405D4A33FF
S11308B018F0495D31FD4052419302D0A9F7EACFC7
S11308C0B4E0A6959795879577956795BA95C9F7F6
S11308D000976105710508959B01AC010A2E0694E9
S11308E05795479537952795BA95C9F7620F731FA2
S11308F0841F951FA01D08952F923F924F925F92DF
S11309006F927F928F929F92AF92BF92CF92DF921B
S1130910EF92FF920F931F93CF93DF93CDB7DEB780
S1130920CA1BDB0B0FB6F894DEBF0FBECDBF099414
S11309302A88398848885F846E847D848C849B846B
S1130940AA84B984C884DF80EE80FD800C811B8179
S1130950AA81B981CE0FD11D0FB6F894DEBF0FBEA8
S10D0960CDBFED010895F894FFCF18
S113096A253032640054656D703A2020206F43208C
S113097A20202020204C65643A20004572726F7250
S105098A000067
S9030000FC
